{
  "_format": "hh-sol-artifact-1",
  "contractName": "PaymentVault",
  "sourceName": "contracts/PaymentVault.sol",
  "abi": [
    {
      "inputs": [],
      "stateMutability": "nonpayable",
      "type": "constructor"
    },
    {
      "anonymous": false,
      "inputs": [
        {
          "indexed": true,
          "internalType": "address",
          "name": "sender",
          "type": "address"
        },
        {
          "indexed": false,
          "internalType": "uint256",
          "name": "amount",
          "type": "uint256"
        }
      ],
      "name": "DepositCompleted",
      "type": "event"
    },
    {
      "anonymous": false,
      "inputs": [
        {
          "indexed": true,
          "internalType": "address",
          "name": "currentOwner",
          "type": "address"
        },
        {
          "indexed": true,
          "internalType": "address",
          "name": "newOwner",
          "type": "address"
        },
        {
          "indexed": false,
          "internalType": "uint256",
          "name": "transferredTimestamp",
          "type": "uint256"
        }
      ],
      "name": "OwnershipTransferred",
      "type": "event"
    },
    {
      "anonymous": false,
      "inputs": [
        {
          "indexed": true,
          "internalType": "address",
          "name": "token",
          "type": "address"
        },
        {
          "indexed": true,
          "internalType": "address",
          "name": "beneficiary",
          "type": "address"
        },
        {
          "indexed": false,
          "internalType": "uint256",
          "name": "amount",
          "type": "uint256"
        }
      ],
      "name": "WithdrawCompleted",
      "type": "event"
    },
    {
      "inputs": [],
      "name": "Owner",
      "outputs": [
        {
          "internalType": "address",
          "name": "",
          "type": "address"
        }
      ],
      "stateMutability": "view",
      "type": "function"
    },
    {
      "inputs": [],
      "name": "acceptOwnership",
      "outputs": [],
      "stateMutability": "nonpayable",
      "type": "function"
    },
    {
      "inputs": [
        {
          "internalType": "contract ERC20",
          "name": "_token",
          "type": "address"
        },
        {
          "internalType": "uint256",
          "name": "_amount",
          "type": "uint256"
        }
      ],
      "name": "deposit",
      "outputs": [],
      "stateMutability": "nonpayable",
      "type": "function"
    },
    {
      "inputs": [],
      "name": "pendingOwner",
      "outputs": [
        {
          "internalType": "address",
          "name": "",
          "type": "address"
        }
      ],
      "stateMutability": "view",
      "type": "function"
    },
    {
      "inputs": [
        {
          "internalType": "address",
          "name": "_newOwner",
          "type": "address"
        }
      ],
      "name": "proposeOwnership",
      "outputs": [],
      "stateMutability": "nonpayable",
      "type": "function"
    },
    {
      "inputs": [
        {
          "internalType": "contract ERC20",
          "name": "_token",
          "type": "address"
        },
        {
          "internalType": "uint256",
          "name": "_amount",
          "type": "uint256"
        }
      ],
      "name": "withdraw",
      "outputs": [],
      "stateMutability": "nonpayable",
      "type": "function"
    }
  ],
  "bytecode": "0x608060405234801561001057600080fd5b50600080546001600160a01b0319163390811782556040514281529091907fc13a1166d81cd3b0b352a367aebab95f3a6f6bc695fdab8e9a9d335239c3861b9060200160405180910390a36107178061006a6000396000f3fe608060405234801561001057600080fd5b50600436106100625760003560e01c806347e7ef2414610067578063710bf3221461007c57806379ba50971461008f578063b4a99a4e14610097578063e30c3978146100c0578063f3fef3a3146100d1575b600080fd5b61007a610075366004610612565b6100e4565b005b61007a61008a36600461063e565b610266565b61007a61032c565b6000546001600160a01b03165b6040516001600160a01b03909116815260200160405180910390f35b6001546001600160a01b03166100a4565b61007a6100df366004610612565b610406565b6040516370a0823160e01b81523360048201526000906001600160a01b038416906370a0823190602401602060405180830381865afa15801561012b573d6000803e3d6000fd5b505050506040513d601f19601f8201168201806040525081019061014f9190610662565b9050818110156101b45760405162461bcd60e51b815260206004820152602560248201527f596f75722077616c6c65742062616c616e636520666f7220746f6b656e206973604482015264103637bb9760d91b60648201526084015b60405180910390fd5b6040516323b872dd60e01b8152336004820152306024820152604481018390526001600160a01b038416906323b872dd906064016020604051808303816000875af1158015610207573d6000803e3d6000fd5b505050506040513d601f19601f8201168201806040525081019061022b919061067b565b5060405182815233907ffe49ff9074b43d72959bdaa84c28024687dc010a90ff7329c5c033aa02227e5e9060200160405180910390a2505050565b336102796000546001600160a01b031690565b6001600160a01b03161461029f5760405162461bcd60e51b81526004016101ab9061069d565b6001600160a01b03811661030a5760405162461bcd60e51b815260206004820152602c60248201527f536166654f776e3a204e6577204f776e65722063616e206e6f7420626520612060448201526b5a65726f204164647265737360a01b60648201526084016101ab565b600180546001600160a01b0319166001600160a01b0392909216919091179055565b6001546001600160a01b0316331461039b5760405162461bcd60e51b815260206004820152602c60248201527f536166654f776e3a2043616c6c657220697320746865206e6f7420746865205060448201526b32b73234b7339027bbb732b960a11b60648201526084016101ab565b60008054600180546001600160a01b038082166001600160a01b031980861682179096559490911690915560405142815291169190819083907fc13a1166d81cd3b0b352a367aebab95f3a6f6bc695fdab8e9a9d335239c3861b906020015b60405180910390a35050565b336104196000546001600160a01b031690565b6001600160a01b03161461043f5760405162461bcd60e51b81526004016101ab9061069d565b6000811161049e5760405162461bcd60e51b815260206004820152602660248201527f576974686472617720616d6f756e74206d75737420626520677265617465722060448201526507468616e20360d41b60648201526084016101ab565b6040516370a0823160e01b815230600482015281906001600160a01b038416906370a0823190602401602060405180830381865afa1580156104e4573d6000803e3d6000fd5b505050506040513d601f19601f820116820180604052508101906105089190610662565b101561054b5760405162461bcd60e51b8152602060048201526012602482015271496e73756666696369656e742066756e647360701b60448201526064016101ab565b60405163a9059cbb60e01b8152336004820152602481018290526001600160a01b0383169063a9059cbb906044016020604051808303816000875af1158015610598573d6000803e3d6000fd5b505050506040513d601f19601f820116820180604052508101906105bc919061067b565b5060405181815233906001600160a01b038416907f652e5f2b84266044225092e1fcc145efcdb90518f0b9f071c67806c958e42a86906020016103fa565b6001600160a01b038116811461060f57600080fd5b50565b6000806040838503121561062557600080fd5b8235610630816105fa565b946020939093013593505050565b60006020828403121561065057600080fd5b813561065b816105fa565b9392505050565b60006020828403121561067457600080fd5b5051919050565b60006020828403121561068d57600080fd5b8151801515811461065b57600080fd5b60208082526024908201527f536166654f776e3a2043616c6c657220697320746865206e6f7420746865204f6040820152633bb732b960e11b60608201526080019056fea26469706673582212209c38ee1892efea5374a83b14f15228811e77cc1a3f66934f64a16c9490b16aa464736f6c63430008110033",
  "linkReferences": {},
  "deployedLinkReferences": {}
}