{
  "_format": "hh-sol-artifact-1",
  "contractName": "PaymentVault",
  "sourceName": "contracts/PaymentVault.sol",
  "abi": [
    {
      "anonymous": false,
      "inputs": [
        {
          "indexed": false,
          "internalType": "address",
          "name": "sender",
          "type": "address"
        },
        {
          "indexed": false,
          "internalType": "uint256",
          "name": "amount",
          "type": "uint256"
        }
      ],
      "name": "DepositCompleted",
      "type": "event"
    },
    {
      "anonymous": false,
      "inputs": [
        {
          "indexed": false,
          "internalType": "uint8",
          "name": "version",
          "type": "uint8"
        }
      ],
      "name": "Initialized",
      "type": "event"
    },
    {
      "anonymous": false,
      "inputs": [
        {
          "indexed": false,
          "internalType": "address",
          "name": "tokenWithdraw",
          "type": "address"
        },
        {
          "indexed": false,
          "internalType": "address",
          "name": "sentTo",
          "type": "address"
        },
        {
          "indexed": false,
          "internalType": "uint256",
          "name": "amount",
          "type": "uint256"
        }
      ],
      "name": "withdrawCompleted",
      "type": "event"
    },
    {
      "inputs": [
        {
          "internalType": "contract IERC20Upgradeable",
          "name": "token",
          "type": "address"
        },
        {
          "internalType": "uint256",
          "name": "amount",
          "type": "uint256"
        }
      ],
      "name": "deposit",
      "outputs": [],
      "stateMutability": "nonpayable",
      "type": "function"
    },
    {
      "inputs": [],
      "name": "initialize",
      "outputs": [],
      "stateMutability": "nonpayable",
      "type": "function"
    },
    {
      "inputs": [
        {
          "internalType": "contract IERC20Upgradeable",
          "name": "token",
          "type": "address"
        },
        {
          "internalType": "uint256",
          "name": "amount",
          "type": "uint256"
        }
      ],
      "name": "withdraw",
      "outputs": [],
      "stateMutability": "nonpayable",
      "type": "function"
    }
  ],
  "bytecode": "0x608060405234801561001057600080fd5b506108b1806100206000396000f3fe608060405234801561001057600080fd5b50600436106100415760003560e01c806347e7ef24146100465780638129fc1c1461005b578063f3fef3a314610063575b600080fd5b61005961005436600461078e565b610076565b005b610059610197565b61005961007136600461078e565b6102b9565b6040516370a0823160e01b81523360048201526000906001600160a01b038416906370a0823190602401602060405180830381865afa1580156100bd573d6000803e3d6000fd5b505050506040513d601f19601f820116820180604052508101906100e191906107c6565b9050818110156101445760405162461bcd60e51b8152602060048201526024808201527f596f75722077616c6c65742062616c616e636520666f7220746f6b656e206973604482015263206c6f7760e01b60648201526084015b60405180910390fd5b6101596001600160a01b038416333085610486565b60408051338152602081018490527ffe49ff9074b43d72959bdaa84c28024687dc010a90ff7329c5c033aa02227e5e910160405180910390a1505050565b600054610100900460ff16158080156101b75750600054600160ff909116105b806101d15750303b1580156101d1575060005460ff166001145b6102345760405162461bcd60e51b815260206004820152602e60248201527f496e697469616c697a61626c653a20636f6e747261637420697320616c72656160448201526d191e481a5b9a5d1a585b1a5e995960921b606482015260840161013b565b6000805460ff191660011790558015610257576000805461ff0019166101001790555b6000805462010000600160b01b03191633620100000217905580156102b6576000805461ff0019169055604051600181527f7f26b83ff96e1f2b6a682f133852f6798a09c465da95921460cefb38474024989060200160405180910390a15b50565b6000546201000090046001600160a01b031633146103195760405162461bcd60e51b815260206004820152601d60248201527f4f6e6c79206f776e65722063616e2077697468647261772066756e6473000000604482015260640161013b565b600081116103785760405162461bcd60e51b815260206004820152602660248201527f576974686472617720616d6f756e74206d75737420626520677265617465722060448201526507468616e20360d41b606482015260840161013b565b6040516370a0823160e01b815230600482015281906001600160a01b038416906370a0823190602401602060405180830381865afa1580156103be573d6000803e3d6000fd5b505050506040513d601f19601f820116820180604052508101906103e291906107c6565b10156104255760405162461bcd60e51b8152602060048201526012602482015271496e73756666696369656e742066756e647360701b604482015260640161013b565b6104396001600160a01b03831633836104f7565b604080516001600160a01b03841681523360208201529081018290527ff3789dcb0465b976f3218a6d0d4934215f485e88c8fdc400e1fd9e0af096cb9a9060600160405180910390a15050565b6040516001600160a01b03808516602483015283166044820152606481018290526104f19085906323b872dd60e01b906084015b60408051601f198184030181529190526020810180516001600160e01b03166001600160e01b03199093169290921790915261052c565b50505050565b6040516001600160a01b03831660248201526044810182905261052790849063a9059cbb60e01b906064016104ba565b505050565b6000610581826040518060400160405280602081526020017f5361666545524332303a206c6f772d6c6576656c2063616c6c206661696c6564815250856001600160a01b03166105fe9092919063ffffffff16565b805190915015610527578080602001905181019061059f91906107df565b6105275760405162461bcd60e51b815260206004820152602a60248201527f5361666545524332303a204552433230206f7065726174696f6e20646964206e6044820152691bdd081cdd58d8d9595960b21b606482015260840161013b565b606061060d8484600085610615565b949350505050565b6060824710156106765760405162461bcd60e51b815260206004820152602660248201527f416464726573733a20696e73756666696369656e742062616c616e636520666f6044820152651c8818d85b1b60d21b606482015260840161013b565b600080866001600160a01b03168587604051610692919061082c565b60006040518083038185875af1925050503d80600081146106cf576040519150601f19603f3d011682016040523d82523d6000602084013e6106d4565b606091505b50915091506106e5878383876106f0565b979650505050505050565b6060831561075f578251600003610758576001600160a01b0385163b6107585760405162461bcd60e51b815260206004820152601d60248201527f416464726573733a2063616c6c20746f206e6f6e2d636f6e7472616374000000604482015260640161013b565b508161060d565b61060d83838151156107745781518083602001fd5b8060405162461bcd60e51b815260040161013b9190610848565b600080604083850312156107a157600080fd5b82356001600160a01b03811681146107b857600080fd5b946020939093013593505050565b6000602082840312156107d857600080fd5b5051919050565b6000602082840312156107f157600080fd5b8151801515811461080157600080fd5b9392505050565b60005b8381101561082357818101518382015260200161080b565b50506000910152565b6000825161083e818460208701610808565b9190910192915050565b6020815260008251806020840152610867816040850160208701610808565b601f01601f1916919091016040019291505056fea264697066735822122067fcc8456acb921d9ea075d95b9e756f53fe1187e19518127d57a89dba33590264736f6c63430008110033",
  "linkReferences": {},
  "deployedLinkReferences": {}
}