{
  "_format": "hh-sol-artifact-1",
  "contractName": "PaymentVault",
  "sourceName": "contracts/PaymentVault.sol",
  "abi": [
    {
      "inputs": [],
      "stateMutability": "nonpayable",
      "type": "constructor"
    },
    {
      "anonymous": false,
      "inputs": [
        {
          "indexed": true,
          "internalType": "address",
          "name": "token",
          "type": "address"
        },
        {
          "indexed": true,
          "internalType": "address",
          "name": "sender",
          "type": "address"
        },
        {
          "indexed": false,
          "internalType": "uint256",
          "name": "amount",
          "type": "uint256"
        }
      ],
      "name": "DepositCompleted",
      "type": "event"
    },
    {
      "anonymous": false,
      "inputs": [
        {
          "indexed": true,
          "internalType": "address",
          "name": "currentOwner",
          "type": "address"
        },
        {
          "indexed": true,
          "internalType": "address",
          "name": "newOwner",
          "type": "address"
        },
        {
          "indexed": false,
          "internalType": "uint256",
          "name": "transferredTimestamp",
          "type": "uint256"
        }
      ],
      "name": "OwnershipTransferred",
      "type": "event"
    },
    {
      "anonymous": false,
      "inputs": [
        {
          "indexed": true,
          "internalType": "address",
          "name": "token",
          "type": "address"
        },
        {
          "indexed": true,
          "internalType": "address",
          "name": "beneficiary",
          "type": "address"
        },
        {
          "indexed": false,
          "internalType": "uint256",
          "name": "amount",
          "type": "uint256"
        }
      ],
      "name": "WithdrawCompleted",
      "type": "event"
    },
    {
      "inputs": [],
      "name": "Owner",
      "outputs": [
        {
          "internalType": "address",
          "name": "",
          "type": "address"
        }
      ],
      "stateMutability": "view",
      "type": "function"
    },
    {
      "inputs": [],
      "name": "acceptOwnership",
      "outputs": [],
      "stateMutability": "nonpayable",
      "type": "function"
    },
    {
      "inputs": [
        {
          "internalType": "contract IERC20",
          "name": "_token",
          "type": "address"
        },
        {
          "internalType": "uint256",
          "name": "_amount",
          "type": "uint256"
        }
      ],
      "name": "deposit",
      "outputs": [],
      "stateMutability": "nonpayable",
      "type": "function"
    },
    {
      "inputs": [],
      "name": "pendingOwner",
      "outputs": [
        {
          "internalType": "address",
          "name": "",
          "type": "address"
        }
      ],
      "stateMutability": "view",
      "type": "function"
    },
    {
      "inputs": [
        {
          "internalType": "address",
          "name": "_newOwner",
          "type": "address"
        }
      ],
      "name": "proposeOwnership",
      "outputs": [],
      "stateMutability": "nonpayable",
      "type": "function"
    },
    {
      "inputs": [
        {
          "internalType": "contract IERC20",
          "name": "_token",
          "type": "address"
        },
        {
          "internalType": "uint256",
          "name": "_amount",
          "type": "uint256"
        }
      ],
      "name": "withdraw",
      "outputs": [],
      "stateMutability": "nonpayable",
      "type": "function"
    }
  ],
  "bytecode": "0x608060405234801561001057600080fd5b50600080546001600160a01b0319163390811782556040514281529091907fc13a1166d81cd3b0b352a367aebab95f3a6f6bc695fdab8e9a9d335239c3861b9060200160405180910390a36109dc8061006a6000396000f3fe608060405234801561001057600080fd5b50600436106100625760003560e01c806347e7ef2414610067578063710bf3221461007c57806379ba50971461008f578063b4a99a4e14610097578063e30c3978146100c0578063f3fef3a3146100d1575b600080fd5b61007a610075366004610864565b6100e4565b005b61007a61008a366004610890565b61020e565b61007a6102d4565b6000546001600160a01b03165b6040516001600160a01b03909116815260200160405180910390f35b6001546001600160a01b03166100a4565b61007a6100df366004610864565b6103ae565b6040516370a0823160e01b81523360048201526000906001600160a01b038416906370a0823190602401602060405180830381865afa15801561012b573d6000803e3d6000fd5b505050506040513d601f19601f8201168201806040525081019061014f91906108b4565b9050818110156101b45760405162461bcd60e51b815260206004820152602560248201527f596f75722077616c6c65742062616c616e636520666f7220746f6b656e206973604482015264103637bb9760d91b60648201526084015b60405180910390fd5b6101c96001600160a01b038416333085610544565b60405182815233906001600160a01b038516907f1bad216835d734e9d5e04912eb29a5b47ac9479d0c6e1a622f4e1b4d983a196c9060200160405180910390a3505050565b336102216000546001600160a01b031690565b6001600160a01b0316146102475760405162461bcd60e51b81526004016101ab906108cd565b6001600160a01b0381166102b25760405162461bcd60e51b815260206004820152602c60248201527f536166654f776e3a204e6577204f776e65722063616e206e6f7420626520612060448201526b5a65726f204164647265737360a01b60648201526084016101ab565b600180546001600160a01b0319166001600160a01b0392909216919091179055565b6001546001600160a01b031633146103435760405162461bcd60e51b815260206004820152602c60248201527f536166654f776e3a2043616c6c657220697320746865206e6f7420746865205060448201526b32b73234b7339027bbb732b960a11b60648201526084016101ab565b60008054600180546001600160a01b038082166001600160a01b031980861682179096559490911690915560405142815291169190819083907fc13a1166d81cd3b0b352a367aebab95f3a6f6bc695fdab8e9a9d335239c3861b906020015b60405180910390a35050565b336103c16000546001600160a01b031690565b6001600160a01b0316146103e75760405162461bcd60e51b81526004016101ab906108cd565b600081116104465760405162461bcd60e51b815260206004820152602660248201527f576974686472617720616d6f756e74206d75737420626520677265617465722060448201526507468616e20360d41b60648201526084016101ab565b6040516370a0823160e01b815230600482015281906001600160a01b038416906370a0823190602401602060405180830381865afa15801561048c573d6000803e3d6000fd5b505050506040513d601f19601f820116820180604052508101906104b091906108b4565b10156104f35760405162461bcd60e51b8152602060048201526012602482015271496e73756666696369656e742066756e647360701b60448201526064016101ab565b6105076001600160a01b03831633836105b5565b60405181815233906001600160a01b038416907f652e5f2b84266044225092e1fcc145efcdb90518f0b9f071c67806c958e42a86906020016103a2565b6040516001600160a01b03808516602483015283166044820152606481018290526105af9085906323b872dd60e01b906084015b60408051601f198184030181529190526020810180516001600160e01b03166001600160e01b0319909316929092179091526105ea565b50505050565b6040516001600160a01b0383166024820152604481018290526105e590849063a9059cbb60e01b90606401610578565b505050565b600061063f826040518060400160405280602081526020017f5361666545524332303a206c6f772d6c6576656c2063616c6c206661696c6564815250856001600160a01b03166106bc9092919063ffffffff16565b8051909150156105e5578080602001905181019061065d9190610911565b6105e55760405162461bcd60e51b815260206004820152602a60248201527f5361666545524332303a204552433230206f7065726174696f6e20646964206e6044820152691bdd081cdd58d8d9595960b21b60648201526084016101ab565b60606106cb84846000856106d3565b949350505050565b6060824710156107345760405162461bcd60e51b815260206004820152602660248201527f416464726573733a20696e73756666696369656e742062616c616e636520666f6044820152651c8818d85b1b60d21b60648201526084016101ab565b600080866001600160a01b031685876040516107509190610957565b60006040518083038185875af1925050503d806000811461078d576040519150601f19603f3d011682016040523d82523d6000602084013e610792565b606091505b50915091506107a3878383876107ae565b979650505050505050565b6060831561081d578251600003610816576001600160a01b0385163b6108165760405162461bcd60e51b815260206004820152601d60248201527f416464726573733a2063616c6c20746f206e6f6e2d636f6e747261637400000060448201526064016101ab565b50816106cb565b6106cb83838151156108325781518083602001fd5b8060405162461bcd60e51b81526004016101ab9190610973565b6001600160a01b038116811461086157600080fd5b50565b6000806040838503121561087757600080fd5b82356108828161084c565b946020939093013593505050565b6000602082840312156108a257600080fd5b81356108ad8161084c565b9392505050565b6000602082840312156108c657600080fd5b5051919050565b60208082526024908201527f536166654f776e3a2043616c6c657220697320746865206e6f7420746865204f6040820152633bb732b960e11b606082015260800190565b60006020828403121561092357600080fd5b815180151581146108ad57600080fd5b60005b8381101561094e578181015183820152602001610936565b50506000910152565b60008251610969818460208701610933565b9190910192915050565b6020815260008251806020840152610992816040850160208701610933565b601f01601f1916919091016040019291505056fea2646970667358221220fadfab05a2d8df575b1444e468af69f571378eb51a37f61d1518b50101e02cab64736f6c63430008130033",
  "linkReferences": {},
  "deployedLinkReferences": {}
}