{
  "_format": "hh-sol-artifact-1",
  "contractName": "PaymentVault",
  "sourceName": "contracts/PaymentVault.sol",
  "abi": [
    {
      "anonymous": false,
      "inputs": [
        {
          "indexed": false,
          "internalType": "address",
          "name": "sender",
          "type": "address"
        },
        {
          "indexed": false,
          "internalType": "uint256",
          "name": "amount",
          "type": "uint256"
        }
      ],
      "name": "DepositCompleted",
      "type": "event"
    },
    {
      "anonymous": false,
      "inputs": [
        {
          "indexed": false,
          "internalType": "uint8",
          "name": "version",
          "type": "uint8"
        }
      ],
      "name": "Initialized",
      "type": "event"
    },
    {
      "anonymous": false,
      "inputs": [
        {
          "indexed": true,
          "internalType": "address",
          "name": "previousOwner",
          "type": "address"
        },
        {
          "indexed": true,
          "internalType": "address",
          "name": "newOwner",
          "type": "address"
        }
      ],
      "name": "OwnershipTransferred",
      "type": "event"
    },
    {
      "anonymous": false,
      "inputs": [
        {
          "indexed": false,
          "internalType": "address",
          "name": "token",
          "type": "address"
        },
        {
          "indexed": false,
          "internalType": "address",
          "name": "beneficiary",
          "type": "address"
        },
        {
          "indexed": false,
          "internalType": "uint256",
          "name": "amount",
          "type": "uint256"
        }
      ],
      "name": "WithdrawCompleted",
      "type": "event"
    },
    {
      "inputs": [
        {
          "internalType": "contract IERC20Upgradeable",
          "name": "_token",
          "type": "address"
        },
        {
          "internalType": "uint256",
          "name": "_amount",
          "type": "uint256"
        }
      ],
      "name": "deposit",
      "outputs": [],
      "stateMutability": "nonpayable",
      "type": "function"
    },
    {
      "inputs": [],
      "name": "initialize",
      "outputs": [],
      "stateMutability": "nonpayable",
      "type": "function"
    },
    {
      "inputs": [],
      "name": "owner",
      "outputs": [
        {
          "internalType": "address",
          "name": "",
          "type": "address"
        }
      ],
      "stateMutability": "view",
      "type": "function"
    },
    {
      "inputs": [],
      "name": "renounceOwnership",
      "outputs": [],
      "stateMutability": "nonpayable",
      "type": "function"
    },
    {
      "inputs": [
        {
          "internalType": "address",
          "name": "newOwner",
          "type": "address"
        }
      ],
      "name": "transferOwnership",
      "outputs": [],
      "stateMutability": "nonpayable",
      "type": "function"
    },
    {
      "inputs": [
        {
          "internalType": "contract IERC20Upgradeable",
          "name": "_token",
          "type": "address"
        },
        {
          "internalType": "uint256",
          "name": "_amount",
          "type": "uint256"
        }
      ],
      "name": "withdraw",
      "outputs": [],
      "stateMutability": "nonpayable",
      "type": "function"
    }
  ],
  "bytecode": "0x608060405234801561001057600080fd5b50610aab806100206000396000f3fe608060405234801561001057600080fd5b50600436106100625760003560e01c806347e7ef2414610067578063715018a61461007c5780638129fc1c146100845780638da5cb5b1461008c578063f2fde38b146100ab578063f3fef3a3146100be575b600080fd5b61007a61007536600461092c565b6100d1565b005b61007a6101f4565b61007a610208565b603354604080516001600160a01b039092168252519081900360200190f35b61007a6100b9366004610958565b610319565b61007a6100cc36600461092c565b61038f565b6040516370a0823160e01b81523360048201526000906001600160a01b038416906370a0823190602401602060405180830381865afa158015610118573d6000803e3d6000fd5b505050506040513d601f19601f8201168201806040525081019061013c919061097c565b9050818110156101a15760405162461bcd60e51b815260206004820152602560248201527f596f75722077616c6c65742062616c616e636520666f7220746f6b656e206973604482015264103637bb9760d91b60648201526084015b60405180910390fd5b6101b66001600160a01b038416333085610504565b60408051338152602081018490527ffe49ff9074b43d72959bdaa84c28024687dc010a90ff7329c5c033aa02227e5e910160405180910390a1505050565b6101fc610575565b61020660006105cf565b565b600054610100900460ff16158080156102285750600054600160ff909116105b806102425750303b158015610242575060005460ff166001145b6102a55760405162461bcd60e51b815260206004820152602e60248201527f496e697469616c697a61626c653a20636f6e747261637420697320616c72656160448201526d191e481a5b9a5d1a585b1a5e995960921b6064820152608401610198565b6000805460ff1916600117905580156102c8576000805461ff0019166101001790555b6102d0610621565b8015610316576000805461ff0019169055604051600181527f7f26b83ff96e1f2b6a682f133852f6798a09c465da95921460cefb38474024989060200160405180910390a15b50565b610321610575565b6001600160a01b0381166103865760405162461bcd60e51b815260206004820152602660248201527f4f776e61626c653a206e6577206f776e657220697320746865207a65726f206160448201526564647265737360d01b6064820152608401610198565b610316816105cf565b610397610575565b600081116103f65760405162461bcd60e51b815260206004820152602660248201527f576974686472617720616d6f756e74206d75737420626520677265617465722060448201526507468616e20360d41b6064820152608401610198565b6040516370a0823160e01b815230600482015281906001600160a01b038416906370a0823190602401602060405180830381865afa15801561043c573d6000803e3d6000fd5b505050506040513d601f19601f82011682018060405250810190610460919061097c565b10156104a35760405162461bcd60e51b8152602060048201526012602482015271496e73756666696369656e742066756e647360701b6044820152606401610198565b6104b76001600160a01b0383163383610650565b604080516001600160a01b03841681523360208201529081018290527f652e5f2b84266044225092e1fcc145efcdb90518f0b9f071c67806c958e42a869060600160405180910390a15050565b6040516001600160a01b038085166024830152831660448201526064810182905261056f9085906323b872dd60e01b906084015b60408051601f198184030181529190526020810180516001600160e01b03166001600160e01b031990931692909217909152610685565b50505050565b6033546001600160a01b031633146102065760405162461bcd60e51b815260206004820181905260248201527f4f776e61626c653a2063616c6c6572206973206e6f7420746865206f776e65726044820152606401610198565b603380546001600160a01b038381166001600160a01b0319831681179093556040519116919082907f8be0079c531659141344cd1fd0a4f28419497f9722a3daafe3b4186f6b6457e090600090a35050565b600054610100900460ff166106485760405162461bcd60e51b815260040161019890610995565b610206610757565b6040516001600160a01b03831660248201526044810182905261068090849063a9059cbb60e01b90606401610538565b505050565b60006106da826040518060400160405280602081526020017f5361666545524332303a206c6f772d6c6576656c2063616c6c206661696c6564815250856001600160a01b03166107879092919063ffffffff16565b80519091501561068057808060200190518101906106f891906109e0565b6106805760405162461bcd60e51b815260206004820152602a60248201527f5361666545524332303a204552433230206f7065726174696f6e20646964206e6044820152691bdd081cdd58d8d9595960b21b6064820152608401610198565b600054610100900460ff1661077e5760405162461bcd60e51b815260040161019890610995565b610206336105cf565b6060610796848460008561079e565b949350505050565b6060824710156107ff5760405162461bcd60e51b815260206004820152602660248201527f416464726573733a20696e73756666696369656e742062616c616e636520666f6044820152651c8818d85b1b60d21b6064820152608401610198565b600080866001600160a01b0316858760405161081b9190610a26565b60006040518083038185875af1925050503d8060008114610858576040519150601f19603f3d011682016040523d82523d6000602084013e61085d565b606091505b509150915061086e87838387610879565b979650505050505050565b606083156108e85782516000036108e1576001600160a01b0385163b6108e15760405162461bcd60e51b815260206004820152601d60248201527f416464726573733a2063616c6c20746f206e6f6e2d636f6e74726163740000006044820152606401610198565b5081610796565b61079683838151156108fd5781518083602001fd5b8060405162461bcd60e51b81526004016101989190610a42565b6001600160a01b038116811461031657600080fd5b6000806040838503121561093f57600080fd5b823561094a81610917565b946020939093013593505050565b60006020828403121561096a57600080fd5b813561097581610917565b9392505050565b60006020828403121561098e57600080fd5b5051919050565b6020808252602b908201527f496e697469616c697a61626c653a20636f6e7472616374206973206e6f74206960408201526a6e697469616c697a696e6760a81b606082015260800190565b6000602082840312156109f257600080fd5b8151801515811461097557600080fd5b60005b83811015610a1d578181015183820152602001610a05565b50506000910152565b60008251610a38818460208701610a02565b9190910192915050565b6020815260008251806020840152610a61816040850160208701610a02565b601f01601f1916919091016040019291505056fea264697066735822122015a475c334ee63887b3eb82e2658d58e0d4dc9347f15f794e88a87615e990bab64736f6c63430008110033",
  "linkReferences": {},
  "deployedLinkReferences": {}
}