{
  "_format": "hh-sol-artifact-1",
  "contractName": "PaymentVault",
  "sourceName": "contracts/PaymentVault.sol",
  "abi": [
    {
      "inputs": [],
      "stateMutability": "nonpayable",
      "type": "constructor"
    },
    {
      "anonymous": false,
      "inputs": [
        {
          "indexed": true,
          "internalType": "address",
          "name": "sender",
          "type": "address"
        },
        {
          "indexed": false,
          "internalType": "uint256",
          "name": "amount",
          "type": "uint256"
        }
      ],
      "name": "DepositCompleted",
      "type": "event"
    },
    {
      "anonymous": false,
      "inputs": [
        {
          "indexed": true,
          "internalType": "address",
          "name": "previousOwner",
          "type": "address"
        },
        {
          "indexed": true,
          "internalType": "address",
          "name": "newOwner",
          "type": "address"
        }
      ],
      "name": "OwnershipTransferred",
      "type": "event"
    },
    {
      "anonymous": false,
      "inputs": [
        {
          "indexed": true,
          "internalType": "address",
          "name": "token",
          "type": "address"
        },
        {
          "indexed": true,
          "internalType": "address",
          "name": "beneficiary",
          "type": "address"
        },
        {
          "indexed": false,
          "internalType": "uint256",
          "name": "amount",
          "type": "uint256"
        }
      ],
      "name": "WithdrawCompleted",
      "type": "event"
    },
    {
      "inputs": [
        {
          "internalType": "contract ERC20",
          "name": "_token",
          "type": "address"
        },
        {
          "internalType": "uint256",
          "name": "_amount",
          "type": "uint256"
        }
      ],
      "name": "deposit",
      "outputs": [],
      "stateMutability": "nonpayable",
      "type": "function"
    },
    {
      "inputs": [],
      "name": "owner",
      "outputs": [
        {
          "internalType": "address",
          "name": "",
          "type": "address"
        }
      ],
      "stateMutability": "view",
      "type": "function"
    },
    {
      "inputs": [],
      "name": "renounceOwnership",
      "outputs": [],
      "stateMutability": "nonpayable",
      "type": "function"
    },
    {
      "inputs": [
        {
          "internalType": "address",
          "name": "newOwner",
          "type": "address"
        }
      ],
      "name": "transferOwnership",
      "outputs": [],
      "stateMutability": "nonpayable",
      "type": "function"
    },
    {
      "inputs": [
        {
          "internalType": "contract ERC20",
          "name": "_token",
          "type": "address"
        },
        {
          "internalType": "uint256",
          "name": "_amount",
          "type": "uint256"
        }
      ],
      "name": "withdraw",
      "outputs": [],
      "stateMutability": "nonpayable",
      "type": "function"
    }
  ],
  "bytecode": "0x608060405234801561001057600080fd5b5061001a3361001f565b61006f565b600080546001600160a01b038381166001600160a01b0319831681178455604051919092169283917f8be0079c531659141344cd1fd0a4f28419497f9722a3daafe3b4186f6b6457e09190a35050565b61060d8061007e6000396000f3fe608060405234801561001057600080fd5b50600436106100575760003560e01c806347e7ef241461005c578063715018a6146100715780638da5cb5b14610079578063f2fde38b14610098578063f3fef3a3146100ab575b600080fd5b61006f61006a36600461054c565b6100be565b005b61006f610240565b600054604080516001600160a01b039092168252519081900360200190f35b61006f6100a6366004610578565b61024a565b61006f6100b936600461054c565b6102c3565b6040516370a0823160e01b81523360048201526000906001600160a01b038416906370a0823190602401602060405180830381865afa158015610105573d6000803e3d6000fd5b505050506040513d601f19601f82011682018060405250810190610129919061059c565b90508181101561018e5760405162461bcd60e51b815260206004820152602560248201527f596f75722077616c6c65742062616c616e636520666f7220746f6b656e206973604482015264103637bb9760d91b60648201526084015b60405180910390fd5b6040516323b872dd60e01b8152336004820152306024820152604481018390526001600160a01b038416906323b872dd906064016020604051808303816000875af11580156101e1573d6000803e3d6000fd5b505050506040513d601f19601f8201168201806040525081019061020591906105b5565b5060405182815233907ffe49ff9074b43d72959bdaa84c28024687dc010a90ff7329c5c033aa02227e5e9060200160405180910390a2505050565b61024861048d565b565b61025261048d565b6001600160a01b0381166102b75760405162461bcd60e51b815260206004820152602660248201527f4f776e61626c653a206e6577206f776e657220697320746865207a65726f206160448201526564647265737360d01b6064820152608401610185565b6102c0816104e7565b50565b6102cb61048d565b6000811161032a5760405162461bcd60e51b815260206004820152602660248201527f576974686472617720616d6f756e74206d75737420626520677265617465722060448201526507468616e20360d41b6064820152608401610185565b6040516370a0823160e01b815230600482015281906001600160a01b038416906370a0823190602401602060405180830381865afa158015610370573d6000803e3d6000fd5b505050506040513d601f19601f82011682018060405250810190610394919061059c565b10156103d75760405162461bcd60e51b8152602060048201526012602482015271496e73756666696369656e742066756e647360701b6044820152606401610185565b60405163a9059cbb60e01b8152336004820152602481018290526001600160a01b0383169063a9059cbb906044016020604051808303816000875af1158015610424573d6000803e3d6000fd5b505050506040513d601f19601f8201168201806040525081019061044891906105b5565b5060405181815233906001600160a01b038416907f652e5f2b84266044225092e1fcc145efcdb90518f0b9f071c67806c958e42a869060200160405180910390a35050565b6000546001600160a01b031633146102485760405162461bcd60e51b815260206004820181905260248201527f4f776e61626c653a2063616c6c6572206973206e6f7420746865206f776e65726044820152606401610185565b600080546001600160a01b038381166001600160a01b0319831681178455604051919092169283917f8be0079c531659141344cd1fd0a4f28419497f9722a3daafe3b4186f6b6457e09190a35050565b6001600160a01b03811681146102c057600080fd5b6000806040838503121561055f57600080fd5b823561056a81610537565b946020939093013593505050565b60006020828403121561058a57600080fd5b813561059581610537565b9392505050565b6000602082840312156105ae57600080fd5b5051919050565b6000602082840312156105c757600080fd5b8151801515811461059557600080fdfea264697066735822122026425553e5048b429d920ebc23c2ee8205eced5f4223a88e0bd77aeb0c87612c64736f6c63430008110033",
  "linkReferences": {},
  "deployedLinkReferences": {}
}