{
  "_format": "hh-sol-artifact-1",
  "contractName": "PaymentVault",
  "sourceName": "contracts/PaymentVault.sol",
  "abi": [
    {
      "anonymous": false,
      "inputs": [
        {
          "indexed": false,
          "internalType": "address",
          "name": "sender",
          "type": "address"
        },
        {
          "indexed": false,
          "internalType": "uint256",
          "name": "amount",
          "type": "uint256"
        }
      ],
      "name": "DepositCompleted",
      "type": "event"
    },
    {
      "anonymous": false,
      "inputs": [
        {
          "indexed": false,
          "internalType": "uint8",
          "name": "version",
          "type": "uint8"
        }
      ],
      "name": "Initialized",
      "type": "event"
    },
    {
      "anonymous": false,
      "inputs": [
        {
          "indexed": false,
          "internalType": "address",
          "name": "tokenWithdraw",
          "type": "address"
        },
        {
          "indexed": false,
          "internalType": "address",
          "name": "sentTo",
          "type": "address"
        },
        {
          "indexed": false,
          "internalType": "uint256",
          "name": "amount",
          "type": "uint256"
        }
      ],
      "name": "withdrawCompleted",
      "type": "event"
    },
    {
      "inputs": [
        {
          "internalType": "contract IERC20Upgradeable",
          "name": "token",
          "type": "address"
        },
        {
          "internalType": "uint256",
          "name": "amount",
          "type": "uint256"
        }
      ],
      "name": "deposit",
      "outputs": [],
      "stateMutability": "nonpayable",
      "type": "function"
    },
    {
      "inputs": [],
      "name": "initialize",
      "outputs": [],
      "stateMutability": "nonpayable",
      "type": "function"
    },
    {
      "inputs": [
        {
          "internalType": "contract IERC20Upgradeable",
          "name": "token",
          "type": "address"
        },
        {
          "internalType": "uint256",
          "name": "amount",
          "type": "uint256"
        }
      ],
      "name": "withdraw",
      "outputs": [],
      "stateMutability": "nonpayable",
      "type": "function"
    }
  ],
  "bytecode": "0x608060405234801561001057600080fd5b506108a5806100206000396000f3fe608060405234801561001057600080fd5b50600436106100415760003560e01c806347e7ef24146100465780638129fc1c1461005b578063f3fef3a314610063575b600080fd5b610059610054366004610782565b610076565b005b61005961018b565b610059610071366004610782565b6102ad565b6040516370a0823160e01b81523360048201526000906001600160a01b038416906370a0823190602401602060405180830381865afa1580156100bd573d6000803e3d6000fd5b505050506040513d601f19601f820116820180604052508101906100e191906107ba565b9050818110156101385760405162461bcd60e51b815260206004820152601c60248201527f42616c616e636520666f722077616c6c6574206973206c6f772121210000000060448201526064015b60405180910390fd5b61014d6001600160a01b03841633308561047a565b60408051338152602081018490527ffe49ff9074b43d72959bdaa84c28024687dc010a90ff7329c5c033aa02227e5e910160405180910390a1505050565b600054610100900460ff16158080156101ab5750600054600160ff909116105b806101c55750303b1580156101c5575060005460ff166001145b6102285760405162461bcd60e51b815260206004820152602e60248201527f496e697469616c697a61626c653a20636f6e747261637420697320616c72656160448201526d191e481a5b9a5d1a585b1a5e995960921b606482015260840161012f565b6000805460ff19166001179055801561024b576000805461ff0019166101001790555b6000805462010000600160b01b03191633620100000217905580156102aa576000805461ff0019169055604051600181527f7f26b83ff96e1f2b6a682f133852f6798a09c465da95921460cefb38474024989060200160405180910390a15b50565b6000546201000090046001600160a01b0316331461030d5760405162461bcd60e51b815260206004820152601d60248201527f4f6e6c79206f776e65722063616e2077697468647261772066756e6473000000604482015260640161012f565b6000811161036c5760405162461bcd60e51b815260206004820152602660248201527f576974686472617720616d6f756e74206d75737420626520677265617465722060448201526507468616e20360d41b606482015260840161012f565b6040516370a0823160e01b815230600482015281906001600160a01b038416906370a0823190602401602060405180830381865afa1580156103b2573d6000803e3d6000fd5b505050506040513d601f19601f820116820180604052508101906103d691906107ba565b10156104195760405162461bcd60e51b8152602060048201526012602482015271496e73756666696369656e742066756e647360701b604482015260640161012f565b61042d6001600160a01b03831633836104eb565b604080516001600160a01b03841681523360208201529081018290527ff3789dcb0465b976f3218a6d0d4934215f485e88c8fdc400e1fd9e0af096cb9a9060600160405180910390a15050565b6040516001600160a01b03808516602483015283166044820152606481018290526104e59085906323b872dd60e01b906084015b60408051601f198184030181529190526020810180516001600160e01b03166001600160e01b031990931692909217909152610520565b50505050565b6040516001600160a01b03831660248201526044810182905261051b90849063a9059cbb60e01b906064016104ae565b505050565b6000610575826040518060400160405280602081526020017f5361666545524332303a206c6f772d6c6576656c2063616c6c206661696c6564815250856001600160a01b03166105f29092919063ffffffff16565b80519091501561051b578080602001905181019061059391906107d3565b61051b5760405162461bcd60e51b815260206004820152602a60248201527f5361666545524332303a204552433230206f7065726174696f6e20646964206e6044820152691bdd081cdd58d8d9595960b21b606482015260840161012f565b60606106018484600085610609565b949350505050565b60608247101561066a5760405162461bcd60e51b815260206004820152602660248201527f416464726573733a20696e73756666696369656e742062616c616e636520666f6044820152651c8818d85b1b60d21b606482015260840161012f565b600080866001600160a01b031685876040516106869190610820565b60006040518083038185875af1925050503d80600081146106c3576040519150601f19603f3d011682016040523d82523d6000602084013e6106c8565b606091505b50915091506106d9878383876106e4565b979650505050505050565b6060831561075357825160000361074c576001600160a01b0385163b61074c5760405162461bcd60e51b815260206004820152601d60248201527f416464726573733a2063616c6c20746f206e6f6e2d636f6e7472616374000000604482015260640161012f565b5081610601565b61060183838151156107685781518083602001fd5b8060405162461bcd60e51b815260040161012f919061083c565b6000806040838503121561079557600080fd5b82356001600160a01b03811681146107ac57600080fd5b946020939093013593505050565b6000602082840312156107cc57600080fd5b5051919050565b6000602082840312156107e557600080fd5b815180151581146107f557600080fd5b9392505050565b60005b838110156108175781810151838201526020016107ff565b50506000910152565b600082516108328184602087016107fc565b9190910192915050565b602081526000825180602084015261085b8160408501602087016107fc565b601f01601f1916919091016040019291505056fea2646970667358221220fe3f4435e50d41729282a50b826b5aac78c93083854d3ec792c06cde43c738b964736f6c63430008110033",
  "linkReferences": {},
  "deployedLinkReferences": {}
}