{
  "_format": "hh-sol-artifact-1",
  "contractName": "PaymentVault",
  "sourceName": "contracts/PaymentVault.sol",
  "abi": [
    {
      "anonymous": false,
      "inputs": [
        {
          "indexed": false,
          "internalType": "uint8",
          "name": "version",
          "type": "uint8"
        }
      ],
      "name": "Initialized",
      "type": "event"
    },
    {
      "anonymous": false,
      "inputs": [
        {
          "indexed": false,
          "internalType": "address",
          "name": "sender",
          "type": "address"
        },
        {
          "indexed": false,
          "internalType": "uint256",
          "name": "amount",
          "type": "uint256"
        }
      ],
      "name": "depositFundCompleted",
      "type": "event"
    },
    {
      "anonymous": false,
      "inputs": [
        {
          "indexed": false,
          "internalType": "address",
          "name": "tokenWithdraw",
          "type": "address"
        },
        {
          "indexed": false,
          "internalType": "address",
          "name": "sentTo",
          "type": "address"
        },
        {
          "indexed": false,
          "internalType": "uint256",
          "name": "amount",
          "type": "uint256"
        }
      ],
      "name": "withdrawFundsCompleted",
      "type": "event"
    },
    {
      "inputs": [
        {
          "internalType": "contract IERC20Upgradeable",
          "name": "tokenToLock",
          "type": "address"
        },
        {
          "internalType": "uint256",
          "name": "amount",
          "type": "uint256"
        }
      ],
      "name": "depositFunds",
      "outputs": [],
      "stateMutability": "nonpayable",
      "type": "function"
    },
    {
      "inputs": [],
      "name": "initialize",
      "outputs": [],
      "stateMutability": "nonpayable",
      "type": "function"
    },
    {
      "inputs": [
        {
          "internalType": "contract IERC20Upgradeable",
          "name": "token",
          "type": "address"
        },
        {
          "internalType": "address",
          "name": "walletAddress",
          "type": "address"
        }
      ],
      "name": "returnBalance",
      "outputs": [
        {
          "internalType": "uint256",
          "name": "",
          "type": "uint256"
        }
      ],
      "stateMutability": "view",
      "type": "function"
    },
    {
      "inputs": [
        {
          "internalType": "contract IERC20Upgradeable",
          "name": "token",
          "type": "address"
        }
      ],
      "name": "tokenBalance",
      "outputs": [
        {
          "internalType": "uint256",
          "name": "",
          "type": "uint256"
        }
      ],
      "stateMutability": "view",
      "type": "function"
    },
    {
      "inputs": [
        {
          "internalType": "contract IERC20Upgradeable",
          "name": "tokenToLock",
          "type": "address"
        },
        {
          "internalType": "uint256",
          "name": "amount",
          "type": "uint256"
        }
      ],
      "name": "withdrawFunds",
      "outputs": [],
      "stateMutability": "nonpayable",
      "type": "function"
    }
  ],
  "bytecode": "0x608060405234801561001057600080fd5b506109c9806100206000396000f3fe608060405234801561001057600080fd5b50600436106100575760003560e01c80638129fc1c1461005c578063921b004b14610066578063b29c42ed14610079578063c10753291461009e578063eedc966a146100b1575b600080fd5b6100646100c4565b005b610064610074366004610863565b6101eb565b61008c61008736600461088f565b6102fb565b60405190815260200160405180910390f35b6100646100ac366004610863565b610372565b61008c6100bf3660046108c8565b61053f565b600054610100900460ff16158080156100e45750600054600160ff909116105b806100fe5750303b1580156100fe575060005460ff166001145b6101665760405162461bcd60e51b815260206004820152602e60248201527f496e697469616c697a61626c653a20636f6e747261637420697320616c72656160448201526d191e481a5b9a5d1a585b1a5e995960921b60648201526084015b60405180910390fd5b6000805460ff191660011790558015610189576000805461ff0019166101001790555b6000805462010000600160b01b03191633620100000217905580156101e8576000805461ff0019169055604051600181527f7f26b83ff96e1f2b6a682f133852f6798a09c465da95921460cefb38474024989060200160405180910390a15b50565b6040516370a0823160e01b81523360048201526000906001600160a01b038416906370a0823190602401602060405180830381865afa158015610232573d6000803e3d6000fd5b505050506040513d601f19601f8201168201806040525081019061025691906108e5565b9050818110156102a85760405162461bcd60e51b815260206004820152601c60248201527f42616c616e636520666f722077616c6c6574206973206c6f7721212100000000604482015260640161015d565b6102bd6001600160a01b0384163330856105b3565b60408051338152602081018490527fcc70952f86c377c55c0d310a0947ab7431583396a1259e8833f01bc7191d5d5b910160405180910390a1505050565b6040516370a0823160e01b81526001600160a01b03828116600483015260009182918516906370a0823190602401602060405180830381865afa158015610346573d6000803e3d6000fd5b505050506040513d601f19601f8201168201806040525081019061036a91906108e5565b949350505050565b6000546201000090046001600160a01b031633146103d25760405162461bcd60e51b815260206004820152601d60248201527f4f6e6c79206f776e65722063616e2077697468647261772066756e6473000000604482015260640161015d565b600081116104315760405162461bcd60e51b815260206004820152602660248201527f576974686472617720616d6f756e74206d75737420626520677265617465722060448201526507468616e20360d41b606482015260840161015d565b6040516370a0823160e01b815230600482015281906001600160a01b038416906370a0823190602401602060405180830381865afa158015610477573d6000803e3d6000fd5b505050506040513d601f19601f8201168201806040525081019061049b91906108e5565b10156104de5760405162461bcd60e51b8152602060048201526012602482015271496e73756666696369656e742066756e647360701b604482015260640161015d565b6104f26001600160a01b0383163383610624565b604080516001600160a01b03841681523360208201529081018290527ff3b41ec8c77bf9c8176547ec2d94140f6cc9f61d07418a0d2a64e0e096065b169060600160405180910390a15050565b6040516370a0823160e01b815230600482015260009081906001600160a01b038416906370a0823190602401602060405180830381865afa158015610588573d6000803e3d6000fd5b505050506040513d601f19601f820116820180604052508101906105ac91906108e5565b9392505050565b6040516001600160a01b038085166024830152831660448201526064810182905261061e9085906323b872dd60e01b906084015b60408051601f198184030181529190526020810180516001600160e01b03166001600160e01b031990931692909217909152610659565b50505050565b6040516001600160a01b03831660248201526044810182905261065490849063a9059cbb60e01b906064016105e7565b505050565b60006106ae826040518060400160405280602081526020017f5361666545524332303a206c6f772d6c6576656c2063616c6c206661696c6564815250856001600160a01b031661072b9092919063ffffffff16565b80519091501561065457808060200190518101906106cc91906108fe565b6106545760405162461bcd60e51b815260206004820152602a60248201527f5361666545524332303a204552433230206f7065726174696f6e20646964206e6044820152691bdd081cdd58d8d9595960b21b606482015260840161015d565b606061036a848460008585600080866001600160a01b031685876040516107529190610944565b60006040518083038185875af1925050503d806000811461078f576040519150601f19603f3d011682016040523d82523d6000602084013e610794565b606091505b50915091506107a5878383876107b0565b979650505050505050565b6060831561081f578251600003610818576001600160a01b0385163b6108185760405162461bcd60e51b815260206004820152601d60248201527f416464726573733a2063616c6c20746f206e6f6e2d636f6e7472616374000000604482015260640161015d565b508161036a565b61036a83838151156108345781518083602001fd5b8060405162461bcd60e51b815260040161015d9190610960565b6001600160a01b03811681146101e857600080fd5b6000806040838503121561087657600080fd5b82356108818161084e565b946020939093013593505050565b600080604083850312156108a257600080fd5b82356108ad8161084e565b915060208301356108bd8161084e565b809150509250929050565b6000602082840312156108da57600080fd5b81356105ac8161084e565b6000602082840312156108f757600080fd5b5051919050565b60006020828403121561091057600080fd5b815180151581146105ac57600080fd5b60005b8381101561093b578181015183820152602001610923565b50506000910152565b60008251610956818460208701610920565b9190910192915050565b602081526000825180602084015261097f816040850160208701610920565b601f01601f1916919091016040019291505056fea2646970667358221220dc868344ad81827bfc373c595cf9f965a0c4fd291d729592bcf932567ed3df0e64736f6c63430008110033",
  "linkReferences": {},
  "deployedLinkReferences": {}
}